{
  "_format": "hh-sol-artifact-1",
  "contractName": "TokenICO",
  "sourceName": "contracts/TokenICO.sol",
  "abi": [
    {
      "inputs": [],
      "stateMutability": "nonpayable",
      "type": "constructor"
    },
    {
      "inputs": [],
      "name": "CannotRescueSaleToken",
      "type": "error"
    },
    {
      "inputs": [],
      "name": "EthTransferFailed",
      "type": "error"
    },
    {
      "inputs": [],
      "name": "InvalidAddress",
      "type": "error"
    },
    {
      "inputs": [],
      "name": "InvalidPrice",
      "type": "error"
    },
    {
      "inputs": [],
      "name": "NoEthSent",
      "type": "error"
    },
    {
      "inputs": [],
      "name": "NoTokensToRescue",
      "type": "error"
    },
    {
      "inputs": [],
      "name": "NoTokensToWithdraw",
      "type": "error"
    },
    {
      "inputs": [],
      "name": "OnlyOwner",
      "type": "error"
    },
    {
      "inputs": [],
      "name": "SaleTokeNotSet",
      "type": "error"
    },
    {
      "inputs": [],
      "name": "TokenTransferFailed",
      "type": "error"
    },
    {
      "inputs": [],
      "name": "UseTokenFunction",
      "type": "error"
    },
    {
      "anonymous": false,
      "inputs": [
        {
          "indexed": false,
          "internalType": "uint256",
          "name": "oldPrice",
          "type": "uint256"
        },
        {
          "indexed": false,
          "internalType": "uint256",
          "name": "newPrice",
          "type": "uint256"
        }
      ],
      "name": "PriceUpdated",
      "type": "event"
    },
    {
      "anonymous": false,
      "inputs": [
        {
          "indexed": true,
          "internalType": "address",
          "name": "token",
          "type": "address"
        }
      ],
      "name": "SaleTokenSet",
      "type": "event"
    },
    {
      "anonymous": false,
      "inputs": [
        {
          "indexed": true,
          "internalType": "address",
          "name": "buyer",
          "type": "address"
        },
        {
          "indexed": false,
          "internalType": "uint256",
          "name": "amountPaid",
          "type": "uint256"
        },
        {
          "indexed": false,
          "internalType": "uint256",
          "name": "tokensBought",
          "type": "uint256"
        }
      ],
      "name": "TokensPurchased",
      "type": "event"
    },
    {
      "inputs": [],
      "name": "buyTokens",
      "outputs": [],
      "stateMutability": "payable",
      "type": "function"
    },
    {
      "inputs": [],
      "name": "ethPriceForToken",
      "outputs": [
        {
          "internalType": "uint256",
          "name": "",
          "type": "uint256"
        }
      ],
      "stateMutability": "view",
      "type": "function"
    },
    {
      "inputs": [],
      "name": "getContractInfo",
      "outputs": [
        {
          "internalType": "address",
          "name": "tokenAddress",
          "type": "address"
        },
        {
          "internalType": "string",
          "name": "tokenSymbol",
          "type": "string"
        },
        {
          "internalType": "uint8",
          "name": "tokenDecimals",
          "type": "uint8"
        },
        {
          "internalType": "uint256",
          "name": "tokenBalance",
          "type": "uint256"
        },
        {
          "internalType": "uint256",
          "name": "ethPrice",
          "type": "uint256"
        },
        {
          "internalType": "uint256",
          "name": "totalSold",
          "type": "uint256"
        }
      ],
      "stateMutability": "view",
      "type": "function"
    },
    {
      "inputs": [],
      "name": "owner",
      "outputs": [
        {
          "internalType": "address",
          "name": "",
          "type": "address"
        }
      ],
      "stateMutability": "view",
      "type": "function"
    },
    {
      "inputs": [
        {
          "internalType": "address",
          "name": "tokenAddress",
          "type": "address"
        }
      ],
      "name": "rescueTokens",
      "outputs": [],
      "stateMutability": "nonpayable",
      "type": "function"
    },
    {
      "inputs": [],
      "name": "saleToken",
      "outputs": [
        {
          "internalType": "address",
          "name": "",
          "type": "address"
        }
      ],
      "stateMutability": "view",
      "type": "function"
    },
    {
      "inputs": [
        {
          "internalType": "address",
          "name": "_token",
          "type": "address"
        }
      ],
      "name": "setSaleToken",
      "outputs": [],
      "stateMutability": "nonpayable",
      "type": "function"
    },
    {
      "inputs": [],
      "name": "tokensSold",
      "outputs": [
        {
          "internalType": "uint256",
          "name": "",
          "type": "uint256"
        }
      ],
      "stateMutability": "view",
      "type": "function"
    },
    {
      "inputs": [
        {
          "internalType": "uint256",
          "name": "newPrice",
          "type": "uint256"
        }
      ],
      "name": "updateTokenPrice",
      "outputs": [],
      "stateMutability": "nonpayable",
      "type": "function"
    },
    {
      "inputs": [],
      "name": "withdrawAllTokens",
      "outputs": [],
      "stateMutability": "nonpayable",
      "type": "function"
    },
    {
      "stateMutability": "payable",
      "type": "receive"
    }
  ],
  "bytecode": "0x60a060405266038d7ea4c6800060015534801561001b57600080fd5b5033608052608051610e7261006c600039600081816101700152818161021301528181610333015281816103eb015281816104df01528181610596015281816107e20152610a230152610e726000f3fe6080604052600436106100945760003560e01c80638da5cb5b116100595780638da5cb5b1461015e578063a29f481c146101aa578063c605af53146101ca578063d0febe4c146101e0578063e985e367146101e857600080fd5b8062ae3bf8146100b7578063280da6fa146100d9578063518ab2a8146100ee578063676c0d77146101175780637cc1f8671461013757600080fd5b366100b25760405163b67b8d2960e01b815260040160405180910390fd5b600080fd5b3480156100c357600080fd5b506100d76100d2366004610af5565b610208565b005b3480156100e557600080fd5b506100d76103e0565b3480156100fa57600080fd5b5061010460025481565b6040519081526020015b60405180910390f35b34801561012357600080fd5b506100d7610132366004610b25565b61058b565b34801561014357600080fd5b5061014c610636565b60405161010e96959493929190610b6e565b34801561016a57600080fd5b506101927f000000000000000000000000000000000000000000000000000000000000000081565b6040516001600160a01b03909116815260200161010e565b3480156101b657600080fd5b506100d76101c5366004610af5565b6107d7565b3480156101d657600080fd5b5061010460015481565b6100d761088f565b3480156101f457600080fd5b50600054610192906001600160a01b031681565b336001600160a01b037f0000000000000000000000000000000000000000000000000000000000000000161461025157604051635fc483c560e01b815260040160405180910390fd5b6000546001600160a01b03828116911614156102805760405163ad2b859d60e01b815260040160405180910390fd5b6040516370a0823160e01b815230600482015281906000906001600160a01b038316906370a082319060240160206040518083038186803b1580156102c457600080fd5b505afa1580156102d8573d6000803e3d6000fd5b505050506040513d601f19601f820116820180604052508101906102fc9190610bcf565b90508061031c576040516362f3ba9760e01b815260040160405180910390fd5b60405163a9059cbb60e01b81526001600160a01b037f0000000000000000000000000000000000000000000000000000000000000000811660048301526024820183905283169063a9059cbb90604401602060405180830381600087803b15801561038657600080fd5b505af115801561039a573d6000803e3d6000fd5b505050506040513d601f19601f820116820180604052508101906103be9190610be8565b6103db5760405163022e258160e11b815260040160405180910390fd5b505050565b336001600160a01b037f0000000000000000000000000000000000000000000000000000000000000000161461042957604051635fc483c560e01b815260040160405180910390fd5b600080546040516370a0823160e01b81523060048201526001600160a01b03909116919082906370a082319060240160206040518083038186803b15801561047057600080fd5b505afa158015610484573d6000803e3d6000fd5b505050506040513d601f19601f820116820180604052508101906104a89190610bcf565b9050806104c857604051637dd28aa760e11b815260040160405180910390fd5b60405163a9059cbb60e01b81526001600160a01b037f0000000000000000000000000000000000000000000000000000000000000000811660048301526024820183905283169063a9059cbb90604401602060405180830381600087803b15801561053257600080fd5b505af1158015610546573d6000803e3d6000fd5b505050506040513d601f19601f8201168201806040525081019061056a9190610be8565b6105875760405163022e258160e11b815260040160405180910390fd5b5050565b336001600160a01b037f000000000000000000000000000000000000000000000000000000000000000016146105d457604051635fc483c560e01b815260040160405180910390fd5b806105f15760405162bfc92160e01b815260040160405180910390fd5b600180549082905560408051828152602081018490527f945c1c4e99aa89f648fbfe3df471b916f719e16d960fcec0737d4d56bd696838910160405180910390a15050565b6000606060008060008060008060009054906101000a90046001600160a01b03169050600081905081816001600160a01b03166395d89b416040518163ffffffff1660e01b815260040160006040518083038186803b15801561069857600080fd5b505afa1580156106ac573d6000803e3d6000fd5b505050506040513d6000823e601f3d908101601f191682016040526106d49190810190610c20565b826001600160a01b031663313ce5676040518163ffffffff1660e01b815260040160206040518083038186803b15801561070d57600080fd5b505afa158015610721573d6000803e3d6000fd5b505050506040513d601f19601f820116820180604052508101906107459190610ccd565b6040516370a0823160e01b81523060048201526001600160a01b038516906370a082319060240160206040518083038186803b15801561078457600080fd5b505afa158015610798573d6000803e3d6000fd5b505050506040513d601f19601f820116820180604052508101906107bc9190610bcf565b600154600254949d939c50919a509850965090945092505050565b336001600160a01b037f0000000000000000000000000000000000000000000000000000000000000000161461082057604051635fc483c560e01b815260040160405180910390fd5b6001600160a01b0381166108475760405163e6c4247b60e01b815260040160405180910390fd5b600080546001600160a01b0319166001600160a01b038316908117825560405190917f3f8bb5f6e8ecfb5425a48c996d20089aff3396b3c168c13403c3fa3996f70a0291a250565b346108ad5760405163717e6b7b60e01b815260040160405180910390fd5b6000546001600160a01b0316806108d7576040516319e28f4160e11b815260040160405180910390fd5b60008190506000816001600160a01b031663313ce5676040518163ffffffff1660e01b815260040160206040518083038186803b15801561091757600080fd5b505afa15801561092b573d6000803e3d6000fd5b505050506040513d601f19601f8201168201806040525081019061094f9190610ccd565b9050600060015482600a6109639190610dec565b61096d9034610dfb565b6109779190610e1a565b600280548201905560405163a9059cbb60e01b8152336004820152602481018290529091506001600160a01b0384169063a9059cbb90604401602060405180830381600087803b1580156109ca57600080fd5b505af11580156109de573d6000803e3d6000fd5b505050506040513d601f19601f82011682018060405250810190610a029190610be8565b610a1f5760405163022e258160e11b815260040160405180910390fd5b60007f00000000000000000000000000000000000000000000000000000000000000006001600160a01b03163460405160006040518083038185875af1925050503d8060008114610a8c576040519150601f19603f3d011682016040523d82523d6000602084013e610a91565b606091505b5050905080610ab357604051630db2c7f160e31b815260040160405180910390fd5b604080513481526020810184905233917f8fafebcaf9d154343dad25669bfa277f4fbacd7ac6b0c4fed522580e040a0f33910160405180910390a25050505050565b600060208284031215610b0757600080fd5b81356001600160a01b0381168114610b1e57600080fd5b9392505050565b600060208284031215610b3757600080fd5b5035919050565b60005b83811015610b59578181015183820152602001610b41565b83811115610b68576000848401525b50505050565b60018060a01b038716815260c06020820152600086518060c0840152610b9b8160e0850160208b01610b3e565b60ff969096166040830152506060810193909352608083019190915260a082015260e0601f909201601f1916010192915050565b600060208284031215610be157600080fd5b5051919050565b600060208284031215610bfa57600080fd5b81518015158114610b1e57600080fd5b634e487b7160e01b600052604160045260246000fd5b600060208284031215610c3257600080fd5b815167ffffffffffffffff80821115610c4a57600080fd5b818401915084601f830112610c5e57600080fd5b815181811115610c7057610c70610c0a565b604051601f8201601f19908116603f01168101908382118183101715610c9857610c98610c0a565b81604052828152876020848701011115610cb157600080fd5b610cc2836020830160208801610b3e565b979650505050505050565b600060208284031215610cdf57600080fd5b815160ff81168114610b1e57600080fd5b634e487b7160e01b600052601160045260246000fd5b600181815b80851115610d41578160001904821115610d2757610d27610cf0565b80851615610d3457918102915b93841c9390800290610d0b565b509250929050565b600082610d5857506001610de6565b81610d6557506000610de6565b8160018114610d7b5760028114610d8557610da1565b6001915050610de6565b60ff841115610d9657610d96610cf0565b50506001821b610de6565b5060208310610133831016604e8410600b8410161715610dc4575081810a610de6565b610dce8383610d06565b8060001904821115610de257610de2610cf0565b0290505b92915050565b6000610b1e60ff841683610d49565b6000816000190483118215151615610e1557610e15610cf0565b500290565b600082610e3757634e487b7160e01b600052601260045260246000fd5b50049056fea2646970667358221220e58f094fb00613bf94c00499a1a3f0af75f7a2f70dd7bb23d59dea40c60a980064736f6c63430008090033",
  "linkReferences": {},
  "deployedLinkReferences": {}
}